:020000040000FA
:100000000000042A043083120317B2002E30B1001E
:100010008030B3003108FE003208FF003308C123EE
:100020008312031745084D23043083120317B200CF
:100030002030B1008030B3003108FE003208FF00EC
:100040003308C1238312031746084D23043083125B
:100050000317B2003430B1008030B3003108FE0025
:100060003208FF003308C1238312031386193B288B
:100070003130FB233D283030FB230430831203173B
:10008000B2003A30B1008030B3003108FE003208CF
:10009000FF003308C12383120313851A522831301D
:1000A000FB2354283030FB23043083120317B200A3
:1000B0002730B1008030B3003108FE003208FF0065
:1000C0003308C12383120317350883120317B100C5
:1000D000B11D6C283030FB238312031734088312C0
:1000E0000317B100311C76283130FB23831203172C
:1000F000350883120317B100311C80283230FB23EE
:1001000083120317360883120317B100311C8A28A3
:100110003330FB2383120317340883120317B10013
:10012000B11C94283430FB23831203173508831243
:100130000317B100B11C9E283530FB23831203172F
:10014000360883120317B100B11CA8283630FB23F0
:1001500083120317340883120317B100311DB2282C
:100160003730FB2383120317350883120317B100BE
:10017000311DBC283830FB23831203173608831245
:100180000317B100311DC6283930FB238312031732
:10019000340883120317B100B11DD0282A30FB2385
:1001A00083120317360883120317B100B11DDA2832
:1001B0002330FB2383120317370883120317B10080
:1001C000311DE4285230FB238312031737088312B2
:1001D0000317B100B11CEE285030FB238312031724
:1001E000370883120317B100311CF8285330FB2362
:1001F000043083120317B2004030B1008030B300E6
:100200003108FE003208FF003308C12308008316BE
:1002100003138517831203138517831603138511A0
:10022000831203138511063083120317A50083126E
:100230000317A5032508031D17290000000000006F
:10024000000083120313060883120317A500A601FA
:10025000F030A505A601250E0F39A700260EA8002F
:10026000F039A704A806F030A819A8042708A500AB
:1002700083120317B400053083120317A5008312FD
:100280000317A5032508031D3F2900008316031348
:100290008515831203138515831603130512831224
:1002A00003130512063083120317A50083120317E8
:1002B000A5032508031D56290000000000000000CA
:1002C00083120313060883120317A500A701F03059
:1002D000A505A701250E0F39A800270EA900F039A2
:1002E000A804A906F030A919A9042808A5008312BA
:1002F0000317B500053083120317A50083120317F7
:10030000A5032508031D7E29000083160313051687
:1003100083120313051683160313051383120313A5
:100320000513063083120317A50083120317A503D4
:100330002508031D9529000000000000000083121D
:100340000313060883120317A500A801F030A505C2
:10035000A801250E0F39A900280EAA00F039A9041A
:10036000AA06F030AA19AA042908A50083120317C7
:10037000B600053083120317A50083120317A503E7
:100380002508031DBD2900008316031305178312DA
:1003900003130517831603138513831203138513A1
:1003A000063083120317A50083120317A50325083F
:1003B000031DD42900000000000000008312031375
:1003C000060883120317A500A901F030A505A901AD
:1003D000250E0F39AA00290EAB00F039AA04AB068E
:1003E000F030AB19AB042A08A50083120317B7003D
:1003F000053083120317A50083120317A5032508F0
:10040000031DFC2900000800E130FE000330FF005E
:100410008030000000008D230000000083120317CD
:10042000B9007F08B800E330BA000330BB00831284
:1004300003173808BC003908BD00FF30B807031C9B
:10044000B9033C083D0403199C2A04303A07BC0058
:10045000BD01BD0D3B08BD073C08FE003D08FF0087
:100460008030000000008D2300000000831203177D
:10047000BF007F08BE003A08FE003B08FF00803046
:10048000000000008D230000000083120317C1004C
:10049000BD007F08C000BC0002303A07BC00BD01AF
:1004A000BD0D3B08BD073C08FE003D08FF00803045
:1004B000000000008D230000000083120317BD0020
:1004C000C3007F08BC00C200831203173E08C200AD
:1004D0003F08C300FF30BE07031CBF0342084304AC
:1004E0000319952A4008FE004108FF0080300000F3
:1004F0000000AE230000000083120317C2003C0876
:100500008312031384008313831203173D18831788
:10051000420883120313800083120317C00A0319D1
:10052000C10ABC0A0319BD0A642A063083120317E4
:10053000BA070318BB0A172A00000000A02A080007
:100540000330831203139F00AB30831603139F0005
:10055000FF308500F73086008113F93083120313D2
:1005600086008316031318159816181283120313A6
:100570009817193083160313990064008316031328
:10058000811281158312031381010721831603133E
:1005900006148312031306100123DD3083120317A0
:1005A0004502031CE82ADD30831203174602031CB0
:1005B000E82A043083120317A1001530A000803010
:1005C000A2002008FE002108FF002208C123F62A0D
:1005D000043083120317A1000930A0008030A2006C
:1005E0002008FE002108FF002208C1238312031304
:1005F0000614831603130610012307210220C52ABF
:100600000800831603130514851483120317C4010D
:10061000831203131F1B132B831203174408831227
:100620000317C500182B00000000000000000000A8
:10063000831203139F1B232B831203174408831277
:100640000317C600282B0000000000000000000077
:10065000043083120317A300831203172303A4009B
:10066000A3002408031D2C2B000000000000000044
:10067000000083120317C40AE4304402031C082B51
:100680008316031305108312031305108316031337
:100690008514831203138510080083120317AF001B
:1006A0003030AE006530831203172F02031C5F2B1E
:1006B000AE0A2F08AD009C302D07AF00522B8312DD
:1006C00003172E08FB23303083120317AE000B30C4
:1006D000831203172F02031C742BAE0A2F08AD00E0
:1006E000F6302D07AF00672B831203172E08FB236C
:1006F000303083120317AE000230831203172F022B
:10070000031C882BAE0A2F08AD002D03AF007C2BF5
:10071000831203172E08FB230800003A0319952BB8
:10072000803A03199F2BFF0100347E088400831355
:100730007F1883170008FF00840A000808000000E3
:100740000000BC23FD00FE0FFF03FF0A00000000B5
:10075000BC23FC007D08FF007C080800003A031958
:10076000B52B803A0319BC2B00347E088400831318
:100770007F188317000808007F088A007E0882001F
:10078000080083120317AF007F08AE007E08AD009B
:10079000831203172D08FE002E08FF002F08AE233A
:1007A00083120317B00030080319E02B3008FB2335
:1007B00083120317AD0A0319AE0A0319AF0AC82B37
:1007C0000800043400344234043444340134013425
:1007D00000344334043445340134013400344434A7
:1007E000043446340134013400344534043447348D
:1007F00001340134003483120317AC008316031351
:10080000981CFE2B831203172C08831203139900E4
:1008100008005B3454347234613463346B344234D2
:1008200061346C346C345D3400345B344A346F347E
:10083000793473347434693463346B345D34003424
:10084000203450346F34743459343A340034203402
:100850004B346534793473343A34003450346F3463
:10086000743458343A340034203454346F3470348F
:100870003A340034203462346F3474343A340034FF
:0C0880000A34003400340034003400342A
:02400E00D03FA1
:00000001FF
