:020000040000FA
:100000000000042A043083120317B2005A30B100F2
:100010008030B3003108FE003208FF003308C523EA
:100020008312031748085123043083120317B200C8
:100030004C30B1008030B3003108FE003208FF00C0
:100040003308C52383120317490851230430831250
:100050000317B2006030B1008030B3003108FE00F9
:100060003208FF003308C5238312031386193B2887
:10007000313027243D2830302724043083120317E1
:10008000B2006630B1008030B3003108FE003208A3
:10009000FF003308C52383120313851A5228313019
:1000A0002724542830302724043083120317B20049
:1000B0005330B1008030B3003108FE003208FF0039
:1000C0003308C52383120317440883120317B100B2
:1000D000B1196C2830302724831203174308831288
:1000E0000317B10031187628313027248312031703
:1000F000440883120317B1003118802832302724B6
:1001000083120317450883120317B10031188A2898
:100110003330272483120317430883120317B100D7
:10012000B11894283430272483120317440883120B
:100130000317B100B1189E28353027248312031706
:10014000450883120317B100B118A82836302724B8
:1001500083120317430883120317B1003119B22821
:100160003730272483120317440883120317B10082
:100170003119BC283830272483120317450883120D
:100180000317B1003119C628393027248312031709
:10019000430883120317B100B119D0282A3027244D
:1001A00083120317450883120317B100B119DA2827
:1001B0002330272483120317460883120317B10044
:1001C0003119E4285230272483120317460883127A
:1001D0000317B100B118EE285030272483120317FB
:1001E000460883120317B1003118F828533027242A
:1001F000043083120317B2006C30B1008030B300BA
:100200003108FE003208FF003308C52308008316BA
:1002100003138517831203138517831603138511A0
:10022000831203138511063083120317A50083126E
:100230000317A5032508031D17290000000000006F
:10024000000083120313060883120317A500A601FA
:10025000F030A505A601250E0F39A700260EA8002F
:10026000F039A704A806F030A819A8042708A500AB
:1002700083120317C300053083120317A5008312EE
:100280000317A5032508031D3F2900008316031348
:100290008515831203138515831603130512831224
:1002A00003130512063083120317A50083120317E8
:1002B000A5032508031D56290000000000000000CA
:1002C00083120313060883120317A500A701F03059
:1002D000A505A701250E0F39A800270EA900F039A2
:1002E000A804A906F030A919A9042808A5008312BA
:1002F0000317C400053083120317A50083120317E8
:10030000A5032508031D7E29000083160313051687
:1003100083120313051683160313051383120313A5
:100320000513063083120317A50083120317A503D4
:100330002508031D9529000000000000000083121D
:100340000313060883120317A500A801F030A505C2
:10035000A801250E0F39A900280EAA00F039A9041A
:10036000AA06F030AA19AA042908A50083120317C7
:10037000C500053083120317A50083120317A503D8
:100380002508031DBD2900008316031305178312DA
:1003900003130517831603138513831203138513A1
:1003A000063083120317A50083120317A50325083F
:1003B000031DD42900000000000000008312031375
:1003C000060883120317A500A901F030A505A901AD
:1003D000250E0F39AA00290EAB00F039AA04AB068E
:1003E000F030AB19AB042A08A50083120317C6002E
:1003F000053083120317A50083120317A5032508F0
:10040000031DFC2900000800F530FE000330FF004A
:1004100080300000000091230000000083120317C9
:10042000B8007F08B700F730B9000330BA00831274
:1004300003173708BB003808BC00FF30B707031CA0
:10044000B8033C083B0403199C2A04303907BB005D
:10045000BC01BC0D3A08BC073B08FE003C08FF008D
:100460008030000000009123000000008312031779
:10047000BE007F08BD003908FE003A08FF0080304A
:100480000000000091230000000083120317C00049
:10049000BC007F08BB00BF0002303907BB00BC01B5
:1004A000BC0D3A08BC073B08FE003C08FF0080304A
:1004B0000000000091230000000083120317BC001D
:1004C000C2007F08C100BB00831203173D08C100B2
:1004D0003E08C200FF30BD07031CBE0342084104B2
:1004E0000319952A3F08FE004008FF0080300000F5
:1004F0000000B2230000000083120317C1003B0874
:100500008312031384008313831203173C18831789
:10051000410883120313800083120317BF0A0319D3
:10052000C00ABB0A0319BC0A642A063083120317E7
:10053000B9070318BA0A172A00000000A02A080009
:100540000330831203139F00EB30831603139F00C5
:10055000FF308500FE3086008113F93083120313CB
:1005600086008316031318159816181283120313A6
:100570009817193083160313990064008316031328
:10058000811281158312031381010721831603133E
:10059000061483120313061010300F240523DD30D8
:1005A000831203174802031CEA2ADD308312031763
:1005B0004902031CEA2A043083120317A1004130C8
:1005C000A0008030A2002008FE002108FF002208C1
:1005D000C523F82A043083120317A1003530A00088
:1005E0008030A2002008FE002108FF002208C52359
:1005F00083120313061483160313061010300F24FE
:10060000052307210220C52A0800831603130514B9
:10061000851483120317C701831203131F1F172B9F
:1006200083120317470883120317C8001C2B00000E
:100630000000000000000000831203139F1F272BFF
:1006400083120317470883120317C9002C2B0000DD
:100650000000000000000000033083120317A30015
:10066000831203172303A400A3002408031D302BC7
:100670000000000000000000000083120317C70AFA
:10068000E4304702031C0C2B83160313051083125E
:1006900003130510831603138510831203138510AB
:1006A000080083120317AF003030AE0064308312AD
:1006B00003172F02031C632BAE0A2F08AD009C30DA
:1006C0002D07AF00562B831203172E082724303036
:1006D00083120317AE000A30831203172F02031C84
:1006E000782BAE0A2F08AD00F6302D07AF006B2B2C
:1006F000831203172E082724303083120317AE000D
:100700000130831203172F02031C8C2BAE0A2F0813
:10071000AD002D03AF00802B831203172E08272472
:100720000800003A0319992B803A0319A32BFF0103
:1007300000347E08840083137F1883170008FF00AD
:10074000840A0008080000000000C023FD00FE0F1E
:10075000FF03FF0A00000000C023FC007D08FF002B
:100760007C080800003A0319B92B803A0319C02B02
:1007700000347E08840083137F1883170008080064
:100780007F088A007E088200080083120317AF00EA
:100790007F08AE007E08AD00831203172D08FE000F
:1007A0002E08FF002F08B22383120317B000300871
:1007B0000319F42B30082724831203172D08FE0099
:1007C0002E08FF002F08B22383120317B0000A3A45
:1007D000031DEC2B0D30272483120317AD0A0319D8
:1007E000AE0A0319AF0ACC2B0800043400346E346F
:1007F000043447340134013400346F340434483451
:100800000134013400347034043449340134013487
:100810000034713404344A34013401340034831216
:100820000317B400633083120317B5000000000003
:10083000831203173503B600B5003608031D162CC6
:100840003403B500B4003508031D122C08008312D0
:100850000317AC0083160313981C2A2C831203176A
:100860002C0883120313990008005B34543472344B
:10087000613463346B34423461346C346C345D34D1
:1008800000345B344A346F347934733474346934EB
:1008900063346B345D340034203450346F3474343A
:1008A00059343A34003420344B3465347934733459
:1008B0003A34003450346F34743458343A34003499
:1008C000203454346F3470343A3400342034623479
:1008D0006F3474343A3400340A3400340034003451
:0408E00000340034AC
:02400E00503F21
:00000001FF
